:10000000027C5E90002DE0FF7E00220258E1D29536
:100010000000000000E490034EF09003517403F0E0
:1000200002C85102986B8F0812AD1FE508D39F409C
:10003000037F0122E50824FFFFE434FFFEEF25E003
:10004000FFEE33FE9000B4E075F003A424B5F58212
:10005000E43400F58312135C8F828E831211C8453D
:10006000F070037F0122E490026AF090016DE0FEDF
:10007000A3E0FFC390012EE09FFF90012DE09EFEC4
:10008000E50825E02475F582E43401F583EEF0A35C
:10009000EFF0E50825E02475F582E43401F583E00E
:1000A000FEC3EE648094805011E50825E02475F5C8
:1000B00082E43401F583E4F0A3F090016AE0147067
:1000C000030201B014700302029E1470030206CCF6
:1000D00024036003020BAA900168E06038900104D9
:1000E000E0600612AFBA12B8CDAF081290FC9001D2
:1000F00062E0FFC394054003020BAA12AD91EF70BA
:0701000003020BAA9001624B
:10010700E0FF12C4FD90016274FFF0020BAA900198
:1001170004E0603CE50824FFFFE434FFFEEF25E040
:10012700FFEE33FE9000B4E075F003A424D3F5820C
:10013700E43400F58312135C8F828E831211C8D3C7
:100147009400E5F064809480400312AE7112B832D7
:10015700AF0812210E900162E0FFC394055006120A
:10016700AD91EF701D9001AAE0FEA3E0FF12880693
:10017700900162EFF0E0B4FF047F0180027F00EF9F
:1001870070E3900162E0FF12AD91EF64016003023A
:100197000BAA900162E0FF12C4FD90016274FFF0A8
:1001A70090016A7401F0020BAA900104E0FD70034C
:1001B700020295E50824FFFFE434FFFEEF25E0FF88
:1001C700EE33FE9000B4E075F003A424D3F582E487
:1001D7003400F58312135C8F828E831211C845F0A9
:1001E7007003020295900168E0600CED600612AFA3
:1001F700BA12B8CD0202D512AE7112B832AF0812D8
:10020700210EE50824FFFFE434FFFEEF25E0FFEEB3
:0902170033FE9000B4E075F00321
:10022000A424D3F582E43400F58312135C8F828E0C
:10023000831211C8FDACF09000B4E075F003A42463
:10024000B5F582E43400F58312135C8F828E83123D
:1002500011C8C39DFFE5F09CFEE50825E0243CF5B0
:1002600082E43401F583E0FCA3E0FDC3EF9DFFEEE3
:100270009CFEE50825E02475F582E43401F583E071
:10028000FCA3E0C39FEE6480F8EC64809850030206
:100290000BAA12AFBA90016A7402F0020BAA900185
:1002A00068E06039900162E0FFC39405501412AD1C
:1002B00091EF600E900162E0FF12C4FD9001627444
:1002C000FFF090016BE06004A37401F0900104E082
:1002D000600312B8CDAF081290FC020BAA90016B1C
:1002E000E060030204D09001BEE07002A3E070035E
:1002F0000204639001C0E07002A3E0700302046393
:10030000900104E070030203BAE50824FFFFE4341F
:10031000FFFEEF25E0FFEE33FE9000B4E075F00342
:08032000A424D3F582E43400AB
:10032800F58312135C8F828E831211C8D39400E573
:10033800F0648094805003020463E50824FFFFE41E
:1003480034FFFEEF25E0FFEE33FE8F82F5831211B6
:10035800C8FDACF09000B4E075F003A424B5F582B4
:10036800E43400F58312135C8F828E831211C8C3A4
:100378009DFFE5F09CFEE50825E0243CF582E43489
:1003880001F583E0FCA3E0FDC3EF9DFFEE9CFEE5D5
:100398000825E02475F582E43401F583E0FCA3E048
:1003A800C39FEE6480F8EC648098500302046302F3
:1003B800044BE50824FFFFE434FFFEEF25E0FFEEE1
:1003C80033FE9000B4E075F003A424B5F582E4345C
:1003D80000F58312135C8F828E831211C8FFAEF072
:1003E800EE3395E0FDFCE47B04FAF9F8121267E4B9
:1003F8007B05FAF9F812A4D3C006C007E50825E082
:10040800243CF582E43401F583E0FEA3E0FBAA0670
:02041800EA33C5
:10041A0095E0F9F8D007D006121259A804A905AA3E
:10042A0006AB07E50825E02475F582E43401F58377
:10043A00E0FEA3E0FFEE3395E0FDFCC31212C450C8
:10044A001890016B7401F0E4A3F090012DE0FFA372
:10045A00E090016FCFF0A3EFF0E50824FFFFE4344A
:10046A00FFFEEF25E0FFEE33FE9000B4E075F003E7
:10047A00A424B5F582E43400F58312135C8F828ECE
:10048A00831211C8FFE50825E0243CF582E4340113
:10049A00F583E0FCA3E0FDC3EF9DFFE5F09CFEE5DC
:1004AA000825E02475F582E43401F583E0FCA3E035
:1004BA00C39FEE6480F8EC64809840057F010206D1
:1004CA00407F0002064090016CE070030205A29092
:1004DA000162E0FFC39405500612AD91EF701D90C2
:1004EA0001BEE0FEA3E0FF128806900162EFF0E091
:1004FA00B4FF047F0180027F00EF70E3900162E0A5
:04050A00FF12AD919E
:10050E00BF0125900162E0FF12C4FD90016274FFED
:10051E00F0E490016CF090012DE0FFA3E090016FEC
:10052E00CFF0A3EFF0020645E50824FFFFE434FF09
:10053E00FEEF25E0FFEE33FE9000B4E075F003A46D
:10054E0024B5F582E43400F58312135C8F828E831A
:10055E001211C8FFE50825E0243CF582E43401F5CC
:10056E0083E0FCA3E0FDC3EF9DFFE5F09CFEE508F4
:10057E0025E02475F582E43401F583E0FCA3E0C3A5
:10058E009FEE6480F8EC64809840047F0180027FC7
:10059E0000020640900162E0FFC39405500612ADC2
:1005AE0091EF701D9001C0E0FEA3E0FF128806904F
:1005BE000162EFF0E0B4FF047F0180027F00EF7074
:1005CE00E3900162E0FF12AD91BF0116900162E06F
:1005DE00FF12C4FD90016274FFF090016C7401F083
:1005EE008055E50824FFFFE434FFFEEF25E0FFEE23
:0A05FE0033FE9000B4E075F003A492
:1006080024B5F582E43400F58312135C8F828E835F
:100618001211C8FFE50825E02475F582E43401F5D8
:1006280083E0FCA3E0C39FE5F06480F8EC64809865
:1006380040047F0180027F0090026BEFF090016B15
:10064800E06004A3E06010900104E0600312B83297
:10065800AF0812210E800E900104E0600312B8CD9D
:10066800AF081290FC90026BE07007900176F002E0
:100678000BAA90012CE07003020BAAE4F09001761B
:10068800E004F0E0C39402500D9001CCE07002A3A6
:10069800E06003020BAA90016BE06004A3E060072E
:1006A800E490013DF0800690013D7401F090010452
:1006B800E0600312B8CDAF081290FC90016A740391
:1006C800F0020BAA900104E0600312B8CDAF081243
:1006D80090FC900135E0FF64106004EFB4110790BE
:1006E80000F2E04402F0900168E0603E900162E0B0
:1006F800FFC39405501412AD91EF600E900162E0B3
:10070800FF12C4FD90016274FFF0E4900171F0A340
:07071800F0A3F0900135E0B1
:10071F00FF64107003020BA3EF64116003020BAAB6
:10072F00020BA3E50824FFFFE434FFFEEF25E0FFF3
:10073F00EE33FE9000B4E075F003A424B5F582E427
:10074F003400F58312135C8F828E831211C8FFE57C
:10075F000825E02475F582E43401F583E0FCA3E07D
:10076F00C39FFEEC95F090026CF0A3CEF090016267
:10077F00E0FFC39405500612AD91EF701D9001A4D8
:10078F00E0FEA3E0FF128806900162EFF0E0B4FFF5
:10079F00047F0180027F00EF70E3900162E0FF129F
:1007AF00B1FCD3EF9405EE940040030209C8900109
:1007BF00C8E07004A3E0646470030209C8E4900207
:1007CF006EF0E50824FFFFE434FFFEEF25E0FFEEB7
:1007DF0033FE9000B4E075F003A424B5F582E43441
:1007EF0000F58312135C8F828E831211C8FFAEF057
:1007FF00EE3395E0FDFCC004C005C006C0079002B3
:0B080F006CE0FEA3E0FFEE3395E0FD7F
:10081A00FCE47B64FAF9F8121267D003D002D00123
:10082A00D00012A4D3A804A905AA06AB079001C850
:10083A00E0FEA3E0FFEE3395E0FDFCD31212C440C4
:10084A000690026E7401F0E50824FFFFE434FFFE0F
:10085A00EF25E0FFEE33FE9000B4E075F003A42428
:10086A00B5F582E43400F58312135C8F828E83120D
:10087A0011C8FFAEF0EE3395E0FDFCC004C005C020
:10088A0006C00790026CE0FEA3E0FFEE3395E0FDA0
:10089A00FCE47B64FAF9F8121267D003D002D001A3
:1008AA00D00012A4D3A804A905AA06AB079001C8D0
:1008BA00E0FEA3E0FFC3E49FFFE49EFE3395E0FD64
:1008CA00FCC31212C4500690026E74FFF0900171BC
:1008DA00E060030209C090026EE070030209D19041
:1008EA0001717401F09001C8E07002A3E0601C90ED
:1008FA0001C8E0FEA3E0FF7C007D0A1210EA12A202
:08090A005D90026FEEF0A3EF17
:10091200F08007E490026FF0A3F0E50824FFFFE403
:1009220034FFFEEF25E0FFEE33FE9000B4E075F0F9
:1009320003A424B5F582E43400F58312135C8F829C
:100942008E831211C8FFAEF0EE3395E0FDFCC004B9
:10095200A905AA06AB079001C8E0FEA3E0FF7C0050
:100962007D0A1210EA90026FE0FCA3E0FDC3EF9D46
:10097200FFEE9CFE3395E0FDFCD000121267E47B93
:100982000AFAF9F812A4D3E47B64FAF9F812A4D3B0
:10099200900271EEF0A3EFF09002711296119002A4
:1009A20071EEF0FCA3EFF0FD90026EE0FF3395E0F4
:1009B200FE1210EA900172EEF0A3EFF080119002A5
:1009C2006EE0700B8001E4900171F0A3F0A3F0904F
:1009D2000162E0FF12AD91EF64016003020BAA9085
:1009E2000162E0FF12C4FD90016274FFF090013DCC
:1009F200E0701C90026CE0FCA3E0FDAF081284D80A
:100A020090026CE0FCA3E0FDAF081239088056E5C5
:100A12000824FFFFE434FFFEEF25E0FFEE33FE90F3
:100A220000B4E075F003A424B5F582E43400F58344
:100A320012135C8F828E831211C8FF90016DE0FC4D
:100A4200A3E0FDC3900170E09DFD90016FE09CFC6E
:100A5200C3EF9DFDE5F09CFC90026CE0FAA3E0FB85
:100A6200AF08125543E50824FFFFE434FFFEEF25EB
:100A7200E0FFEE33FE9000B4E075F003A424B5F578
:100A820082E43400F58312135C8F828E831211C8C4
:100A9200FFE50825E02487F582E43401F583E0FCD4
:100AA200A3E0C39FFFEC95F0FE90026CF0A3EFF081
:100AB200C3EE648094804003020B9D9001D0E070ED
:100AC20002A3E07003020B9D90026CE0FEA3E0FF24
:100AD200C3E49FFFE49EFE3395E0FDFCE47B64FAF1
:070AE200F9F8121267C006CB
:100AE900C0079001D0E0FEA3E0FBAA06EA3395E037
:100AF900F9F8D007D00612A4D3C006C007E5082428
:100B0900FFFFE434FFFEEF25E0FFEE33FE9000B473
:100B1900E075F003A424B5F582E43400F5831213DB
:100B29005C8F828E831211C8AEF0FBAA06EA339558
:100B3900E0F9F8D007D006D31212C45057E50825BA
:100B4900E0243CF582E43401F583E0FEA3E0FFEE06
:100B59003395E0FDFCE47B0FFAF9F8121267E47BA8
:100B69000AFAF9F812A4D3A804A905AA06AB0790B2
:100B7900026CE0FEA3E0FFC3E49FFFE49EFE339511
:100B8900E0FDFCD31212C4500B90016A7402F0E428
:100B9900A3F0800690026A7401F09000F2E054FD1F
:100BA900F0900171E07003020C3AE50824FFFFE4BC
:100BB90034FFFEEF25E0FFEE33FE9000B4E075F060
:100BC90003A424B5F582E43400F58312135C8F8203
:100BD9008E831211C8FF900173E02FFF900172E01C
:100BE90035F0FE129616E50825E02487F582E434EF
:100BF90001F583EEF0A3EFF0E50825E02487F582FF
:100C0900E43401F583E0FEA3E0FFE50825E024755F
:100C1900F582E43401F583E0FCA3E0C39FFFEC9E79
:100C2900FE900175E02FFF900174E03E9001DA809B
:100C39002FE50825E02475F582E43401F583E0FE0B
:100C4900A3E0FFE50825E02487F582E43401F58374
:100C5900EEF0A3EFF0900174E0FFA3E09001DACF8A
:100C6900F0A3EFF090026AE0FF22021028E8648006
:100C7900F8E933E83360110460F0ED33EC337009BF
:100C8900E8FCE9FDEAFEEBFF220460DED3EB9FEA14
:100C99009EE99DE8C2E78CF0C2F795F0400CE8CCDC
:070CA900F8E9CDF9EACEFAEB
:100CB000EBCFFB120FF385D0F05804700320D5B3AF
:100CC000E80470075002B2D502103292D5EC0460ED
:100CD000F7E4CCC0E0C398F8603B94186008400D7E
:100CE000D0E0FB02100AE4FBFAC9FC8028E830E4FB
:100CF00006E4C9FBE4CAFCE830E305E4C9CACBFC5E
:100D0000E854076010F8C3E913F9EA13FAEB13FB90
:100D1000EC13FCD8F130F52FC3E49CFCEF9BFFEE05
:100D20009AFEED99FDD0E0FBEF4E4D4C701222DBA8
:100D30000302102FEC2CFCEF33FFEE33FEED33FDFE
:100D4000ED30E7EB02100AEF2BFFEE3AFEED39FD36
:100D5000D0E0FB50130BBB0003021032ED13FDEE8D
:100D600013FEEF13FFEC13FC02100AEC4D6011E8C8
:0A0D7000497017ED33EC3304600DF9
:100D7A00E4FCFFFEFD22E933E8330470F802102890
:100D8A00120FF358046009E4CC2481500628500954
:100D9A0002103228400302102FC0E0EB4A7044B917
:100DAA008006D0E0FB02101EEF4E701CBD8008EBDF
:100DBA00FFEAFEE9FD80EBE98DF0A4FEE5F0020E04
:100DCA0054E9CDF9EAFEEBFFEF89F0A4FCE5F0CE99
:100DDA0089F0A42EFFE435F0CD89F0A42DFEE43588
:100DEA00F08067EF4E7005BD80D780C3EF8BF0A40B
:100DFA00ACF0EE8BF0A42CFCE435F0F8EF8AF0A40A
:100E0A002CE5F038FCE433CB8DF0A42CFCE5F03B68
:100E1A00F8EE8AF0A42CFCE5F038F8E433CF89F038
:100E2A00A42CFCE5F038CF3400CE89F0A42FFFE5DE
:0F0E3A00F03EFEE433C98DF0A42EFEE5F039CD75
:100E49008AF0A42FFFE5F03EFEE43DFD33D0E0FB40
:100E590050070BBB000F021032EC2CFCEF33FFEEF6
:100E690033FEED33FD02100A021032EC5D04600519
:100E7900E859047003021028120FF3580460F6ECC5
:100E89004860F2EC7004FDFEFF22C860DB2481C8D3
:100E99005009C3986002500602102F9850CAF58273
:100EA900E9294B4A7005AB8202101E75F0007C1AC5
:100EB9007880C3EF9BEE9AED99400DC3EF9BFFEE4F
:100EC9009AFEED99FDE842F0DC23ACF0D0E0FFD0CA
:100ED900E0FED0E0FDAB8220E7101BEB60BAEC2C02
:100EE900FCEF33FFEE33FEED33FD02100AE803F8A1
:100EF90030E705C0F075F000EF2FFFEE33FEED335C
:100F0900FD40B830E7C280AA74F8CC6480CCC864CC
:070F190080C8F5820460436B
:100F2000C3EB9FF5F0EA9E42F0E99D42F0E89C4554
:100F3000F060305018E5825FFFE582F42B5582FBAC
:100F400050210ABA001D09B90019088016E5825B14
:100F5000FBE582F42F5582FF50090EBE00050DBD42
:100F600000010CC3EB9FF5F0EA9E42F0E99D42F0D0
:100F7000E89C45F06007CC4820E701B3EC2275F00F
:100F800020800E75F010800575F0087D007E007FD2
:100F9000003392D530D5031212B6EC334010EF3344
:100FA000FFEE33FEED33FDEC33FCD5F0ED22E5F042
:100FB000247EA2D513CC92E7CDCEFF22EDD2E7CD91
:100FC00033EC3392D524814006E4FFFEFDFC22FC85
:100FD000E4CFCECDCC24E0501174FF80EDC3CC1310
:100FE000CCCD13CDCE13CECF13CF0470F030D5DEE1
:090FF0000212B6E9D2E7C933E8A8
:100FF90033F892D5EDD2E7CD33EC33FC5002B2D5BC
:1010090022EC30E7100FBF000C0EBE00080DBD002A
:10101900040BEB6014A2D5EB13FCED92E7FD2274EF
:10102900FFFCFDFEFF22E480F8A2D574FF13FC7DCE
:1010390080E480EFBB010689828A83E0225002E7BF
:1010490022BBFE02E32289828A83E49322BB010C3C
:10105900E58229F582E5833AF583E0225006E92500
:1010690082F8E622BBFE06E92582F8E222E582291A
:10107900F582E5833AF583E49322BB010FF8E58213
:1010890029F582E5833AF583E028F0225009C582E3
:1010990029F8E58226F622BBFE09C58229F8E22550
:1010A90082F222F8EA2583F583E9932822BB010617
:1010B90089828A83F0225002F722BBFE01F322F8CB
:0F10C900BB010DE58229F582E5833AF583E8F056
:1010D800225006E92582C8F622BBFE05E92582C80A
:1010E800F222EF8DF0A4A8F0CF8CF0A428CE8DF0DA
:1010F800A42EFE22BC000BBE0029EF8DF084FFADAC
:10110800F022E4CCF875F008EF2FFFEE33FEEC3355
:10111800FCEE9DEC984005FCEE9DFE0FD5F0E9E451
:10112800CEFD22EDF8F5F0EE8420D21CFEADF07570
:10113800F008EF2FFFED33FD4007985006D5F0F289
:1011480022C398FD0FD5F0EA22C2D5EC30E709B2E8
:10115800D5E4C39DFDE49CFCEE30E715B2D5E4C3AD
:101168009FFFE49EFE1210FCC3E49DFDE49CFC80FE
:10117800031210FC30D507C3E49FFFE49EFE22C58E
:10118800F0F8A3E028F0C5F0F8E5821582700215A2
:0F11980083E038F022BB010A89828A83E0F5F0F8
:1011A700A3E022500687F009E71922BBFE07E3F503
:1011B700F009E3192289828A83E493F5F074019395
:1011C70022BB0110E58229F582E5833AF583E0F534
:1011D700F0A3E0225009E92582F886F008E622BB51
:1011E700FE0AE92582F8E2F5F008E222E5832AF50E
:1011F70083E993F5F0A3E99322BB010A89828A83E5
:10120700F0E5F0A3F0225006F709A7F01922BBFE7C
:1012170006F3E5F009F31922F8BB0111E58229F578
:1012270082E5833AF583E8F0E5F0A3F0225009E977
:101237002582C8F608A6F022BBFE09E92582C8F276
:10124700E5F008F222EF2BFFEE3AFEED39FDEC3820
:10125700FC22C3EF9BFFEE9AFEED99FDEC98FC2272
:0A126700E88FF0A4CC8BF0A42CFC5F
:10127100E98EF0A42CFC8AF0EDA42CFCEA8EF0A4FB
:10128100CDA8F08BF0A42DCC3825F0FDE98FF0A48A
:101291002CCD35F0FCEB8EF0A4FEA9F0EB8FF0A481
:1012A100CFC5F02ECD39FEE43CFCEAA42DCE35F0BD
:1012B100FDE43CFC22C3E49FFFE49EFEE49DFDE4CB
:1012C1009CFC22EB9FF5F0EA9E42F0E99D42F0EC96
:1012D1006480C864809845F022EB9FF5F0EA9E4255
:1012E100F0E99D42F0E89C45F022E0FCA3E0FDA37B
:1012F100E0FEA3E0FF22E0F8A3E0F9A3E0FAA3E017
:10130100FB22ECF0A3EDF0A3EEF0A3EFF022A88214
:101311008583F0D083D0821213261213261213264E
:0C132100121326E473E493A3C583C5F007
:10132D00C583C8C582C8F0A3C583C5F0C583C8C52C
:10133D0082C822A42582F582E5F03583F58322FA51
:10134D00E6FB0808E6F925F0F618E6CA3AF622E0BB
:10135D00FBA3E0FAA3E0F922EBF0A3EAF0A3E9F096
:10136D0022E493FB740193FA740293F922BB010DED
:10137D00E58229F582E5833AF58302135C5007E98E
:10138D002582F80214CBBBFE07E92582F80214D49E
:10139D00E58229F582E5833AF58302136ED083D079
:1013AD0082F8E4937012740193700DA3A393F874F3
:1013BD000193F5828883E4737402936860EFA3A3AD
:1013CD00A380DFD083D082F8E49370127401937000
:1013DD000DA3A393F8740193F5828883E4737402CB
:1013ED0093B5F0067403936860E9A3A3A3A380D813
:0813FD0075F008758200EF2F66
:10140500FFEE33FECD33CDCC33CCC58233C5829BC5
:10141500ED9AEC99E58298400CF582EE9BFEED9AEB
:10142500FDEC99FC0FD5F0D6E4CEFBE4CDFAE4CC87
:10143500F9A88222B800C1B90059BA002DEC8BF089
:1014450084CFCECDFCE5F0CBF97818EF2FFFEE3346
:10145500FEED33FDEC33FCEB33FB10D70399400471
:10146500EB99FB0FD8E5E4F9FA227818EF2FFFEE98
:1014750033FEED33FDEC33FCC933C910D7059BE9C9
:101485009A4007EC9BFCE99AF90FD8E0E4C9FAE425
:10149500CCFB2275F010EF2FFFEE33FEED33FDCCC4
:1014A50033CCC833C810D7079BEC9AE899400AEDAE
:0514B5009BFDEC9AFC18
:1014BA00E899F80FD5F0DAE4CDFBE4CCFAE4C8F900
:1014CA0022E6FB08E6FA08E6F922E2FB08E2FA0855
:1014DA00E2F92212AD1F900269EFF0900169E0D3A0
:1014EA0094004003D38001C34028126472EF700352
:1014FA00021835900098E0640360030218359001E1
:10150A0069E0600302183512BECF7F011295B2124C
:10151A00909C900169E0D394014003D38001C340B9
:10152A00317F01120026EF7003021835900098E00F
:10153A00640360030218357F01127CEA900269E0B5
:10154A00D3940140077F021295B2800312CCB412E1
:10155A00909C900169E0D394024003D38001C34078
:10156A003E900269E09402500512CCB480317F02A9
:10157A00120026EF7003021835900098E0640360A9
:10158A00030218357F02127CEA900269E0D39402C2
:10159A0040077F031295B2800312CCB412909C903C
:1015AA000169E0D394034003D38001C3403E12ADE6
:1015BA001FEF9403500512CCB480317F031200262A
:0315CA00EF7003BC
:1015CD00021835900098E0640360030218357F031C
:1015DD00127CEA12AD1FEFD3940340077F041295DE
:1015ED00B2800312CCB412909C900169E0D39404A4
:1015FD004003D38001C3403E12AD1FEF940450054C
:10160D0012CCB480317F04120026EF70030218351E
:10161D00900098E0640360030218357F04127CEAA1
:10162D0012AD1FEFD3940440077F051295B28003CE
:10163D0012CCB412909C900169E0D394054003D371
:10164D008001C3403E12AD1FEF9405500512CCB47E
:10165D0080317F05120026EF700302183590009837
:10166D00E0640360030218357F05127CEA12AD1F9A
:10167D00EFD3940540077F061295B2800312CCB4C8
:10168D0012909C900169E0D394064003D38001C36E
:10169D00403E12AD1FEF9406500512CCB480317F41
:1016AD0006120026EF7003021835900098E06403CF
:1016BD0060030218357F06127CEA12AD1FEFD3943A
:1016CD000640077F071295B2800312CCB412909C8E
:1016DD00900169E0D394074003D38001C3403E12CB
:1016ED00AD1FEF9407500512CCB480317F07120067
:0A16FD0026EF7003021835900098E4
:10170700E0640360030218357F07127CEA12AD1FFD
:10171700EFD3940740077F081295B2800312CCB429
:1017270012909C900169E0D394084003D38001C3D1
:10173700403E12AD1FEF9408500512CCB480317FA4
:1017470008120026EF7003021835900098E0640332
:1017570060030218357F08127CEA12AD1FEFD3949D
:101767000840077F091295B2800312CCB412909CEF
:10177700900169E0D394094003D38001C3403E122E
:10178700AD1FEF9409500512CCB480317F091200C8
:1017970026EF7003021835900098E0640360030297
:1017A70018357F09127CEA12AD1FEFD39409400761
:1017B7007F0A1295B2800312CCB412909C900169F3
:1017C700E0D3940A4003D38001C34017124F85EF3B
:1017D700605C900098E06403705412CE0312A76314
:1017E70012909C900169E0D3940B4003D38001C30E
:1017F70040171248F6EF6036900098E06403702EA9
:1018070012BC1512CE7612909C900169E0D3940C0D
:101817004003D38001C34016127363EF601090003A
:1018270098E0B4030912CF6512CEB812909C228BB0
:05183700108A11891266
:10183C009000061210567003021B4EAB10AA11A991
:10184C00129000051210567012900007F5F012124B
:10185C001F900006E41210C8021B4EE4900278F0B0
:10186C00A3F0900274F0AB10AA11A912900005120B
:10187C00105614FF900274E0FEC39F400302193906
:10188C00900001121056FDEE2DFFE433FE7C007D1E
:10189C000A1210FCAF05900273EFF02401FFE43341
:1018AC00FE7C007D0A1210FCAF0590027AEFF0E985
:1018BC002409F9E43AFA75F002EFA4F58285F08375
:1018CC001211C8FFAEF0E5122409F9E43511FA90B3
:1018DC000273E075F002A4F58285F0831211C8FD45
:1018EC00ACF0C39FEE6480F8EC64809850069002D4
:1018FC0079E004F0AB10E5122409F9E43511FA9003
:10190C00027AE075F002A4F58285F0831211C8FF0B
:10191C00D3ED9FE5F06480F8EC648098400690026B
:10192C0078E004F0900274E004F0021872AB10AA94
:0D193C0011A912900005121056FFD394025D
:10194900401AEF13FF900279E0FE900278E0C39EFF
:10195900FEC3EF6480F8EE6480985022900005126F
:101969001056C313F404FF900279E0FE900278E068
:10197900C39EFED3EF6480F8EE648098500890020D
:10198900777401F08005E4900277F090026F1213EA
:101999000F00000000900277E09002756005740A5C
:1019A900F080037401F0E4900276F09000051210C3
:1019B90056C394035003021A7FE4900274F0AB10EB
:1019C900AA11A912900005121056FF900274E0FEA8
:1019D900C39F4003021B25900001121056FDEE2DF6
:1019E900FFE433FE7C007D0A1210FCAF0590027300
:1019F900EFF09000031210566F60729000041210FD
:101A090056FF900273E06F606490026F1212F7C084
:101A190000C001C002C003AB10E5122409F9E43586
:101A290011FA900273E075F002A4F58285F0831231
:101A390011C8AEF0FBAA06EA3395E0F9F8900275F1
:041A4900E0FFE4FCDA
:101A4D00FDFE121267D003D002D001D00012124C4D
:101A5D0090026F121303900275E0FFA3E02FF0A325
:101A6D00E06006900275E004F0900274E004F0026C
:101A7D0019C7E4900274F0AB10AA11A912900005D9
:101A8D00121056FF900274E0C39F4003021B259075
:101A9D000001121056FF900274E02FFFE433FE7C1C
:101AAD00007D0A1210FC900273EDF090026F12127D
:101ABD00F7C000C001C002C003AB10E5122409F944
:101ACD00E43511FA900273E075F002A4F58285F009
:101ADD00831211C8AEF0FBAA06EA3395E0F9F8902F
:101AED000275E0FFE4FCFDFE121267D003D002D0B8
:101AFD0001D00012124C90026F121303900275E088
:101B0D00FFA3E02FF0A3E06006900275E004F090D3
:101B1D000274E004F0021A84900276E0FFFBE4FA0E
:101B2D00F9F890026F1212EB12A4D3AB10AA11A9FF
:101B3D0012900007EE8FF012121F900006E41210A3
:0F1B4D00C89000071211C8FFAEF0228E138F143C
:101B5C008B158A168917900138E07003021D589076
:101B6C000096E07003021CA3E51464027004E513F4
:101B7C0064026018E51464047004E5136402600CDC
:101B8C00E51464087004E51364027038E514B402BB
:101B9C000CE513B402077F0112CE8B802CE514B434
:101BAC00040CE513B402077F0112CDCA800FE514B3
:101BBC00B4081BE513B402167F0112CE8B7F021200
:101BCC00CE8B800A7F0112CDCA7F0212CDCAE514DA
:101BDC0064207004E51364026018E514644070041A
:101BEC00E5136402600CE51464807004E513640270
:101BFC007038E514B4200CE513B402077F0412CE40
:101C0C008B802CE514B4400CE513B402077F04124E
:101C1C00CDCA800FE514B4801BE513B402167F0403
:101C2C0012CE8B7F0812CE8B800A7F0412CDCA7F16
:101C3C000812CDCAE5147004E513640A6016E514A5
:101C4C007004E5136403600CE51464107004E51370
:101C5C0064027039E4B5140CE513B40A077F401222
:101C6C00CE8B802EE4B5140CE513B403077F401221
:101C7C00CDCA8014E51464107004E513640260038B
:101C8C00021D587F4012CE8B7F80021D4E7F40126A
:101C9C00CDCA7F80021D55E514B4020CE513B402C5
:011CAC000730
:101CAD007F0112CE8B80057F0112CDCAE514B404DD
:101CBD000CE513B402077F0212CE8B80057F021252
:101CCD00CDCAE514B4080CE513B402077F0412CE97
:101CDD008B80057F0412CDCAE514B4200CE513B436
:101CED0002077F0812CE8B80057F0812CDCA9000A7
:101CFD0094E0602CE514B4400CE513B402077F406A
:101D0D0012CE8B80057F4012CDCAE514B4800CE550
:101D1D0013B402077F8012CE8B80057F8012CDCA4F
:101D2D00E4B5140CE513B40A077F1012CE8B8005B1
:101D3D007F1012CDCAE514B4100CE513B402077F61
:101D4D002012CE8B80057F2012CDCAE4B51418E584
:101D5D0013B41013AB15AA16A91712103D640A601F
:101D6D0003021E3302BEEEE4B51423E513B4041EC4
:101D7D00AB15AA16A91712103D640A6003021E3393
:101D8D00900098E064026003021E3302C61CE4B5A5
:101D9D001421E513B4011CAB15AA16A91712103D99
:101DAD00640A6003021E33900098E064027077FFAE
:101DBD0002B7E4E4B51426E513B48021AB15AA16D9
:101DCD00A91712103D705F900098E0640270579053
:101DDD0001CCE07002A3E0604D7F148046E4B514A1
:101DED0014E513B4400FAB15AA16A91712103D70C8
:061DFD00357F28802EE472
:101E0300B51414E513B4200FAB15AA16A9171210B5
:101E13003D701D7F1E8016E4B51415E513B4221022
:101E2300AB15AA16A91712103D70057F3212BBAC71
:101E330022007706060077065B0077064F770606D3
:101E43005E77065B5E77064F5E00775B0600775B27
:101E53005B00775B4F00776D0600776D5B00776DF6
:101E63004F773906067739065B7739064F00776671
:101E7300060077664F00777D0600777D5B00777DF0
:101E83004F775B0673775B5B73775B4F73775B06A9
:101E93005E775B5B5E775B4F5E7739065E77395BB8
:101EA3005E77394F5E0000003F000000060000002F
:101EB3005B0000004F0000006D005C717100005C6E
:101EC30054545C547900385C1C76046F767338780C
:101ED30006785B784F78667373713E793F39545453
:101EE300547378735C587773507C38505C507139F5
:101EF3005C7178715E5E0078500E387837786DFFCC
:101F03001EA8FF1EACFF1EB0FF1EB4FF1EA8FF1EBF
:101F1300ACFF1EBCFF1EC0FF1EBCFF1EC0FF1EA8E1
:101F2300FF1EACFF1EA8FF1EACFF1EBCFF1EC0FFA2
:101F33001EACFF1EB0FF1EB8FF1EBCFF1EC001FF7C
:101F43001ED003FF0000000001FF1ED203010000AA
:101F5300000001FF1ED403010000000001FF1ED694
:101F630003010000000001FF1ED803010000000070
:101F730002FF1EDA0000FF1F020402FF1EDC000046
:101F8300FF1F0E0202FF1EDE0000FF1F140202FFEE
:101F93001EE00000FF1F1A0201FF1EE20200000004
:101FA300000002FF1EE40000FF1F200202FF1EE6E6
:101FB3000000FF1F260201FF1EE8020000000000D0
:101FC30001FF1EEA03000000000001FF1EEC0200F7
:101FD3000000000001FF1EEE02010000000001FFEF
:101FE3001EF002010000000002FF1EF20000FF1FAE
:101FF3002C0201FF1EF401000000000001FF1EF689
:1020030002FF0000000002FF1EF80000FF1F320362
:1020130001FF1EFA04FF0000000002FF1EFC000087
:10202300FF1F3B0201FF1EFE03010000000001FF32
:102033001F0003010000000000010203040506075E
:1020430008090A0B0C0E0F101112131415160102B6
:10205300030405060708090A0B0C0D0E0F101112D5
:10206300131415161718FF1EBCFF1EC0FF1EC4FF56
:102073001EBCFF1EC0FF1EBCFF1EC0FF1EBCFF1EFA
:10208300C0900029E0547B60028024900026E07019
:102093000690005EE06002801690013AE0640170F1
:1020A3002A9000A4E020E30A90002DE030E303022D
:1020B300C1AE9000A4E020E24090002DE030E23970
:1020C300900168E0603012B76C802E9000A4E0208D
:1020D300E31090002DE030E309900168E060031203
:1020E300B76C9000A4E020E21090002DE030E209EC
:1020F300900168E0700312C8BD1214DD220F0910AD
:1021030009142B05010001010003FC900125E06087
:10211300069000B0EFF022900096E070030221BC1D
:10212300EF1213AA214601215102215C03216A0403
:1021330021780521860621940721A50821AD0900F0
:102143000022009000F2E04401F054FD801490005E
:10215300F2E054FEF0440280099000F2E04401F002
:102163004402F054FB80369000F2E054FEF054FD3C
:0D217300F0440480289000F2E04401F05494
:10218000FDF04404801A9000F2E054FEF04402F0A6
:102190004404800C9000F2E04401F04402F0440456
:1021A000F054F7F0229000F2E054FE80069000F226
:1021B000E04401F054FDF054FBF08031EF24FE6068
:1021C0001814601D14602214602714602C240570FC
:1021D0002F9000F2E04401F0229000F2E04402F07F
:1021E000229000F2E04404F0229000F2E04408F073
:1021F000229000F2E04440F0229000F2E04480F0AF
:1022000022E4FEFF227A726B056EBFA6900169E0A0
:102210001424F740030222A370030222DF14700388
:102220000222FF240B60030224289001CCE07002FC
:10223000A3E09001677038E02401FFE433FE7C00E6
:102240007D0A1210FC12CA9FEF4480900361F09047
:102250000167E02401FFE433FE7C007D0A1210FCDC
:10226000AF0512CA9FEF4480900362F002242FE072
:102270002401FFE433FE7C007D0A1210FC12CA9F89
:09228000900361EFF0900167E0AA
:102289002401FFE433FE7C007D0A1210FCAF051225
:10229900CA9F900362EFF002242F9001CCE07002F4
:1022A900A3E0900361701474B8F0900169E0FF1223
:1022B900CA9FEF4480900362F080107438F0900157
:1022C90069E0FF12CA9F900362EFF0900169E0FF95
:1022D90012B7940224329001CCE07002A3E090037B
:1022E90061700974F1F0A374B8F080077471F0A3F8
:1022F9007438F002242F9001CCE07002A3E060034F
:1023090002239F9001A1E0B4013F9002C5E014604F
:102319001814601D146022146027146004240570C9
:102329004890036174F1F0804090036174D8F080A3
:10233900389003617488F080309003617480F08074
:102349002890036174A1F0802090036174F1F090EA
:1023590002C5E014601C14602214602814602E1455
:1023690060072405600302242690036274B8F00212
:1023790024269003627490F00224269003627480EC
:10238900F00224269003627481F0022426900362ED
:0D23990074E0F00224269001A1E0B4013EA2
:1023A6009002C5E014601814601D146022146026A3
:1023B600146004240570449003617471F0803C90AD
:1023C60003617458F080349003617408F0802CE443
:1023D600900361F080259003617421F0801D9003C5
:1023E600617471F09002C5E014601814601D1460E9
:1023F6002114602614600424057025900362743845
:10240600F0801D9003627410F08015E4900362F072
:10241600800E9003627401F080069003627460F08F
:102426008007E4900361F0A3F0129A0E900168E031
:10243600600790036D74018004E490036DF0A3F0CF
:102446002290034EE0D3940450037F002290031C95
:10245600E0FF12CD7AEF7002FF227B017A03791C2E
:1024660090034EE0FD12B0C7EF7002FF2290031DED
:10247600E0FF12C65AEF700BE04480F0A37401F03F
:10248600FB806790031EE0FEA3E0FDEDFFC006C0E3
:102496000790031DE0B406067C007D01800A9003C8
:0524A60020E0FEA3E0B0
:1024AB00FDAC06D007D00612BDAD90026FEFF06009
:1024BB001390031DE04480F090026FE090031EF038
:1024CB007B01802190031DE064036032127B3C9002
:1024DB000270EFF06401602690031DE04480F0A3CE
:1024EB007404F07B017A03791C7D03129BA3900388
:1024FB001FEEF0A3EFF09003127405022670900309
:10250B001DE0640360030225AFA3E0FEA3E0FDED35
:10251B00FF900272EEF0A3EFF0900320E0FEA3E039
:10252B00FDEDFF900274EEF0A3EFF0E4900271F07A
:10253B00900271E0FF7E00D3900275E09F900274D1
:10254B00E09E402B900273E02FFF900272E03EFE64
:10255B00122201900271E025E0241FF582E434037E
:10256B00F583EEF0A3EFF0900271E004F080C190E0
:10257B000271E025E090031EF07B017A03791CE0E9
:10258B002403FD129BA390031EE0241FF582E43469
:0B259B0003F583EEF0A3EFF090031EA9
:1025A600E0240590031202267090031DE064067075
:1025B6002C12CF6290031EE0FEA3E0FDEDFFC006E5
:1025C600C007A3E0FEA3E0FDEEFCEDD007D00612A7
:1025D600CE6812CF63900312740802267090031D12
:1025E600E064106003022674A3E0FEA3E0FDEDFFA5
:1025F600900272EEF0A3EFF012CF62E4900271F057
:10260600900322E0FF900271E0FDC39F5041E0FC81
:10261600C313FF900273E02FFF900272E03400FEB6
:10262600C006C00774232CF582E43403F583E0FE6C
:1026360074242DF582E43403F583E0FDEEFCEDD041
:1026460007D00612CE68900271E02402F080B11223
:10265600CF637B017A03791C7D06129BA39003222C
:10266600EEF0A3EFF09003127408F07F01227F00D2
:1026760022900303E07013900361F0A3F0A3F0A38C
:102686007479F0A37450F0A3F0229002EBE0703559
:032696009002FEB1
:10269900E0FFB4FF07900301E0F46026EFB4FF0404
:1026A9007F0080089002FEE0FF12CA9F900361EF4D
:1026B900F0900301E0FFB4FF047F00804F12CA9F2E
:1026C900804A900303E0B401119002ECE0FFF4604A
:1026D90002801690039CE0FF800F9002F9E0FFF45E
:1026E9006002800590039FE0FF900271EFF0900275
:1026F90071E075F00A84FF12CA9F900361EFF090B0
:102709000271E075F00A84AFF012CA9FEF4480901D
:102719000362F09002EBE0FF70047E0180027E000C
:1027290090036DEEF0EF70047F0180027F0090034B
:102739006EEFF09002EBE0640170359002FEE0FF6D
:10274900B4FF07900301E0F46026EFB4FF047F00B3
:1027590080089002FEE0FF12CA9F900363EFF09099
:102769000301E0FFB4FF047F00804F12CA9F804A33
:10277900900303E0B401119002EDE0FFF4600280E0
:102789001690039DE0FF800F9002FAE0FFF46002CB
:1027990080059003A0E0FF900271EFF0900271E0D4
:0827A90075F00A84FF12CA9FBB
:1027B100900363EFF0900271E075F00A84AFF012BC
:1027C100CA9FEF4480900364F09002EBE0FFB401F4
:1027D100047E0180027E0090036FEEF0EFB40104ED
:1027E1007F0180027F00900370EFF09002EBE064C4
:1027F10002703C9002FEE0FFB4FF07900301E0F499
:10280100602DEFB4FF047F0080089002FEE0FF120C
:10281100CA9F900365EFF0900301E0FFB4FF047FCE
:1028210000800312CA9FEF4480900366F0804F90AE
:102831000303E0B401119002EEE0FFF460028016A0
:1028410090039EE0FF800F9002FBE0FFF4600280A6
:10285100059003A1E0FF900271EFF0900271E07525
:10286100F00A84FF12CA9F900365EFF0900271E0B5
:1028710075F00A84AFF012CA9F900366EFF09002E0
:10288100EBE0FFB402047E0180027E00900371EE52
:10289100F0EFB402047F0180027F00900372EFF039
:1028A10022900135E0FF64106004EFB411047F0150
:1028B10080027F0090008DEFF0900135E0FF640A07
:0828C1006009EF640B6004EFF5
:1028C900B40C047F0180027F0090008FEFF090012B
:1028D90035E0FF64126009EF64136004EFB4140477
:1028E9007F0180027F00900092EFF0900135E0FFB8
:1028F90064016018EF64026013EF6403600EEF6413
:10290900046009EF64056004EFB406047F018002E6
:102919007F00900093EFF0900135E0FF6407602796
:10292900EF64086022EF6409601DEF64156018EF19
:1029390064166013EF6417600EEF64186009EF64A2
:10294900196004EFB41A047F0180027F009000949B
:10295900EFF0900135E0FF640D6018EF640E60132D
:10296900EF640F600EEF641B6009EF641C6004EFF5
:10297900B41D047F0180027F00900096EFF0900162
:1029890035E0FF64046045EF64056040EF6406606C
:102999003BEF64126036EF64136031EF6414602C0E
:1029A900EF64156027EF64166022EF6417601DEF6E
:1029B90064186018EF64196013EF641A600EEF640D
:0629C9001B6009EF641C15
:1029CF006004EFB41D047F0180027F00900104EFCB
:1029DF00F0900135E0FF64036027EF64066022EF9B
:1029EF006409601DEF640C6018EF640F6013EF64EF
:1029FF0011600EEF64176009EF641A6004EFB41DE5
:102A0F00047F0180027F009000A2EFF0900135E07B
:102A1F00FF64026027EF64056022EF6408601DEF1A
:102A2F0064166018EF640B6013EF640E600EEF64B2
:102A3F00136009EF64196004EFB41C047F01800276
:102A4F007F0090008EEFF0900135E0FF6415600974
:102A5F00EF64166004EFB417047F0180027F0090CB
:102A6F000125EFF0900135E0FF64126009EF641368
:102A7F006004EFB414047F0180027F00900163EFC4
:102A8F00F0900135E0FF64186009EF64196004EFFE
:102A9F00B41A047F0180027F00900124EFF09001AF
:102AAF0035E0FF641B6009EF641C6004EFB41D0484
:102ABF007F0180027F009000FBEFF02212CDC4EF68
:0C2ACF0070037F012212C489900275EE92
:102ADB00F0A3EFF0751E01751F0275206F7B017A55
:102AEB0001792F12C3F990030FE01213AA2B2300C5
:102AFB002B48012B6F022B95032BB9042BDD052CD7
:102B0B000C062C33072C53082C73092C930A2CB36B
:102B1B000B2CCE0C00002CD9900275E0FEA3E0FF2D
:102B2B00C3EE94004009D3EF9463EE940040037F0F
:102B3B000022900275A3E090026F022BFF900275AA
:102B4B00E0FEA3E0FFC39401EE94004009D3EF94A1
:102B5B000CEE940040037F0022900275A3E09002DC
:102B6B0070022BFF900275E0FEA3E0FFC39401EE11
:102B7B0094004009D3EF941FEE940040037F002292
:102B8B00900275A3E0900271806A900275E0FEA33B
:102B9B00E0FFC3EE94004009D3EF9417EE9400408E
:102BAB00037F0022900275A3E09002728046900290
:102BBB0075E0FEA3E0FFC3EE94004009D3EF943B16
:102BCB00EE940040037F0022900275A3E090027305
:102BDB008022900275E0FEA3E0FFC3EE9400400953
:022BEB00D3EF26
:102BED00943BEE940040037F0022900275A3E09089
:102BFD000274F07B017A02796F12AB0F7F01229084
:102C0D000275E0FEA3E0FFC39401EE94004008EFCF
:102C1D009401EE940050037F0022900275A3E0FF13
:102C2D0012BC377F0122900275E0FEA3E0FF640124
:102C3D004E6007EF4E60037F0022900275A3E0FF08
:102C4D0012BF877F0122900275E0FEA3E0FF6401B1
:102C5D004E6007EF4E60037F0022900275A3E0FFE8
:102C6D0012BFA57F0122900275E0FEA3E0FF640173
:102C7D004E6007EF4E60037F0022900275A3E0FFC8
:102C8D0012BFC37F0122900275E0FEA3E0FF640135
:102C9D004E6007EF4E60037F0022900275A3E0FFA8
:102CAD0012BFE17F0122900275E0FCA3E0FDC39409
:102CBD0002EC940040037F0022AF0512C15C7F013E
:0C2CCD0022900275E0FEA3E0FF02C1E4CB
:102CD9007F0022900313E0FF12C193EF7002FF22DD
:102CE90012C9C7EF7002FF2212C607900270740161
:102CF900F0900314E0FF5401FE900271F0EF540FBD
:102D0900C313A3F0900314E0FFC4540F900273F0AF
:102D1900EE6003022E13900272E0147003022DABD1
:102D2900147003022DAE147003022DF52403600301
:102D3900022E10900273E01213AA2D71002D770153
:102D49002D7D022D83032D88042D88052D88062DC0
:102D590088072D88082D88092D940A2D990B2D9EF9
:102D69000D2DA30E00002DA812B61C022E0512B7B8
:102D79001B022E0512C4CF022E05129559807D9093
:102D89000273E024FDFF12BF69807112C542806C95
:102D990012CDFA8067120003806212CE30805D0284
:102DA9002EC9022EC9900273E0FF1213AA2DDE006C
:102DB9002DE8012DDE022DE8032DDE042DE8052D79
:102DC900DE062DE8072DDE082DE8092DDE0A2DE89F
:102DD9000B00002ECEEFC31304FF12B569801D90BE
:102DE9000273E0C31304FF12C8878010900273E0D6
:102DF900FFC394104003022EC912C124900315EE9B
:102E0900F0A3EFF0022ECE022EC9900272E024FE4A
:102E19006037147003022EAB24036003022EC9909D
:102E29000273E0700E900315E0FEA3E0FF128CB26E
:102E3900022EC2900273E0B4010D900315E0FEA3C7
:072E4900E0FF12B69D80724C
:102E50008077900273E0FF1213AA2E82002E940155
:102E60002E82022E94032E82042E94052E82062E8C
:102E700094072E82082E94092E820A2E940B0000AD
:102E80002EA9EFC31304FF900315E0FCA3E0FD128D
:102E9000CA4F802E900273E0C31304FF900315E025
:102EA000FCA3E0FD12CA5F8019801E900273E0FF50
:102EB000C3941040028012900315E0FCA3E0FD12C1
:102EC000C4E6900270EFF08005E4900270F0900389
:102ED00014E054FEFFF0900270E04F900314F012E3
:102EE000C60712CDF17F012200C1814001C080419F
:102EF00001C0804100C1814001C0804100C18140CA
:102F000000C1814001C0804101C0804100C18140B9
:102F100000C1814001C0804100C1814001C08041A9
:102F200001C0804100C1814001C0804100C1814099
:102F300000C1814001C0804100C1814001C0804189
:102F400001C0804100C1814000C1814001C0804179
:102F500001C0804100C1814001C0804100C1814069
:102F600000C1814001C0804101C0804100C1814059
:102F700000C1814001C0804100C1814001C0804149
:102F800001C0804100C1814000C1814001C0804139
:102F900001C0804100C1814001C0804100C1814029
:102FA00000C1814001C0804100C1814001C0804119
:102FB00001C0804100C1814001C0804100C1814009
:102FC00000C1814001C0804101C0804100C18140F9
:102FD00000C1814001C0804100C1814001C08041E9
:102FE00001C0804100C1814000C0C101C30302C2D1
:102FF000C60607C705C5C404CC0C0DCD0FCFCE0E39
:103000000ACACB0BC90908C8D81819D91BDBDA1AA8
:103010001EDEDF1FDD1D1CDC14D4D515D71716D618
:10302000D21213D311D1D010F03031F133F3F23288
:1030300036F6F737F53534F43CFCFD3DFF3F3EFEF8
:10304000FA3A3BFB39F9F83828E8E929EB2B2AEA68
:10305000EE2E2FEF2DEDEC2CE42425E527E7E626D8
:1030600022E2E323E12120E0A06061A163A3A26248
:1030700066A6A767A56564A46CACAD6DAF6F6EAEB8
:10308000AA6A6BAB69A9A86878B8B979BB7B7ABA28
:10309000BE7E7FBF7DBDBC7CB47475B577B7B67698
:1030A00072B2B373B17170B0509091519353529208
:1030B00096565797559594549C5C5D9D5F9F9E5E78
:1030C0005A9A9B5B99595898884849894B8B8A4AE8
:1030D0004E8E8F4F8D4D4C8C448485458747468658
:1030E0008242438341818040900399E0F97004A3B8
:1030F00002328990039AE0FCA3E0FDC3EF9DFDEE50
:103100009CFC90026FF0A3EDF0E9FB3395E0FAC36D
:10311000E49BFBE49AFAD3ED9BEA6480F8EC6480CC
:1031200098401D900399E0FD3395E0FC90026FE01C
:10313000FAA3E0FBC39DEC6480F8EA648098400E3B
:1031400090039AEEF0A3EFF09003910231DC90032C
:0C31500097EA8BF0121187900394E004C2
:10315C00F0E0FDC394055003023296900397E0FE15
:10316C00A3E0FFD39400EE648094804012ED13FB37
:10317C007A00EF2BFFEA3ECF2401CF3400801B9066
:10318C000394E0FDC313FFC3900398E09FFF9003EB
:10319C0097E09400CF24FFCF34FFFE7C0012115136
:1031AC00900271EEF0A3EFF090039AE0FEA3E0FF23
:1031BC00900271EE8FF0121187900391E0FEA3E064
:1031CC00FF900271E0B50613A3E0B5070E90039AC9
:1031DC00EEF0A3EFF012CD2002CD2C12CD209002F8
:1031EC0071E0FEA3E0FF900391EEF0A3EFF09003EB
:1031FC009AE0FCA3E0FDC3EF9DFFEE9C9003958F3E
:10320C00F0121187900393E004F0E0FDC3940340A7
:10321C0079900395E0FEA3E0FFD39400EE648094D4
:10322C00804012ED13FB7A00EF2BFFEA3ECF240116
:10323C00CF3400801B900393E0FDC313FFC39003B6
:10324C0096E09FFF900395E09400CF24FFCF34FFCE
:10325C00FE7C00121151900271EEF0A3EFF090037E
:10326C009AE0FEA3E0FF900271EE8FF0121187122C
:10327C00CD2C900271E0FEA3E0FF90039AEEF0A338
:10328C00EFF0900391EEF0A3EFF0227BFF7A5279EE
:10329C00DB7D0812AC05900167E02401FFE433FEEE
:1032AC007C007D0A1210FCEF2430FF12C8829001C2
:1032BC0067E02401FFE433FE7C007D0A1210FCED74
:1032CC002430FF12C8827F2012C8827F2012C8824D
:1032DC00900136E060457BFF7A5279E47D0812ACB0
:1032EC00059000B4E02401FFE433FE7C007D0A125B
:1032FC0010FCEF2430FF12C8829000B4E02401FFD0
:10330C00E433FE7C007D0A1210FCED2430FF12C861
:10331C00827F2012C8827F2012C8827BFF7A52796A
:10332C00ED7D0A12AC057B017A01799B128877EF4F
:07333C0070030233E87F3249
:1033430012C8827F3012C88290019BE075F00A8414
:103353002430FF12C88212C8757F2D12C8829001D3
:103363009CE075F00A842430FF12C88290019C12FD
:10337300C8787F2D12C88290019DE075F00A8424DD
:1033830030FF12C88290019D12C8787F2012C88234
:1033930090019EE075F00A8460052430FF80027F6F
:1033A3002012C88290019E12C8787F3A12C8829078
:1033B300019FE075F00A842430FF12C88290019FB8
:1033C30012C8787F3A12C8829001A0E075F00A848F
:1033D3002430FF12C8829001A0E075F00A84E5F062
:1033E3002430FF804D7F2D12C8827F2D12C8827F2B
:1033F3002D12C8827F2D12C8827F2D12C8827F2D85
:1034030012C8827F2D12C8827F2D12C8827F2D128F
:10341300C8827F2D12C8827F2012C8827F2D12C8D6
:10342300827F2D12C8827F3A12C8827F2D12C882F2
:103433007F2D12C8827F0D12C8827F0A02C882E5DF
:103443008730E5055387DF80F675BB7053B1F753BB
:10345300B2F743B2085391DF5392DF439220539163
:10346300FE5392FE43920153B3FB53B4FB43B404A4
:103473005393FE5394FE4394015393FD5394FD439E
:10348300940253B3FE53B4FE43B40153B17F53B21A
:103493007F43B28053B1BF53B2BF43B24053B1DF96
:1034A30053B2DF43B2205393DF4393205394DF534C
:0234B30093EF95
:1034B5004393105394EF5393F74393085394F7535F
:1034C50093FB4393045394FB5395FE5396FE439607
:1034D500015395FD5396FD4396025395FB5396FB79
:1034E5004396045395F75396F74396085395EF5330
:1034F50096EF4396105395DF5396DF4396205395E9
:10350500BF5396BF43964053957F53967F4396800E
:103515005393BF5394BF43944053937F53947F4336
:10352500948053B3BF53B4BF43B44053B3FD53B4B6
:10353500FD43B40253B3DF53B4DF43B42053B3EFB9
:1035450053B4EF43B410758901758CFF758AFFD2AA
:103555008C43A802E4FF12CC00E4FF12CB1A7F02D1
:1035650012B9647F0812C459E4FF12CB29E4FF1293
:10357500CC0DE4FF12B5C4E490035CF0A3F012CFC8
:103585002FD285D284D283D282E4FF12B50B12CA20
:103595008FE4900269F0900269E0FFC3940650330E
:1035A50074612FF582E43403F583E4F074672FF535
:1035B50082E43403F58374FFF0746D2FF582E434EF
:1035C50003F583E4F0900373F0A3F0900269E0043F
:1035D500F080C390035E7401F01298C012CF3BD205
:1035E500AF228E0E8F0F8B108A1189129002D0E0B8
:1035F5001213AA371401373B0236440536511436E7
:103605005E15366B1636781736851E36921F369F31
:103615002236AC2336B92436D32536C628370732A9
:1036250036E03336ED3436FA35372137372E38372D
:103635004846375547376248376F490000377CABF6
:0936450010AA11A912AF0FAE0E7C
:10364E00021B58AB10AA11A912AF0FAE0E0272C018
:10365E00AB10AA11A912AF0FAE0E028DE6AB10AAD7
:10366E0011A912AF0FAE0E028E4BAB10AA11A912FA
:10367E00AF0FAE0E0285C3AB10AA11A912AF0FAEDB
:10368E000E026088AB10AA11A912AF0FAE0E029CEB
:10369E00DEAB10AA11A912AF0FAE0E029D2CAB100D
:1036AE00AA11A912AF0FAE0E0278EAAB10AA11A999
:1036BE0012AF0FAE0E029E5FAB10AA11A912AF0F82
:1036CE00AE0E02AF16AB10AA11A912AF0FAE0E02BC
:1036DE00562EAB10AA11A912AF0FAE0E02A55AAB01
:1036EE0010AA11A912AF0FAE0E02C805AB10AA1187
:1036FE00A912AF0FAE0E02A6E2AB10AA11A912AF1D
:10370E000FAE0E028EB0AB10AA11A912AF0FAE0EF5
:10371E0002C6BEAB10AA11A912AF0FAE0E02A48E36
:10372E00AB10AA11A912AF0FAE0E02B12FAB10AA99
:10373E0011A912AF0FAE0E02B2C4AB10AA11A9128C
:10374E00AF0FAE0E0296BDAB10AA11A912AF0FAEFF
:10375E000E02AD58AB10AA11A912AF0FAE0E02B3E6
:10376E008AAB10AA11A912AF0FAE0E12C8182212F0
:0F377E00AD1F90026BEFF0E4900272F0A3F0A386
:10378D00F0A3F0900271F090026BE0FF900271E0F7
:10379D00C39F50529000B4E075F003A424B5F58298
:1037AD00E43400F58312135C900271E0FF75F002B2
:1037BD00A4F58285F0831211C8FD900272E5F08D9B
:1037CD00F0121187EF25E02489F582E43401F583A9
:1037DD00E0FEA3E0FF900274EE8FF01211879002CD
:1037ED0071E004F080A17F1C12C8827F2612C8826E
:1037FD007F1C12C8827F6912C8827F0312C8827B28
:10380D00FF7A5279CF7D0412AC057F1C12C8827FDE
:10381D002E12C882900272E0FEA3E0FF9001ACE090
:10382D00A3E0FD7B017A02796C75100512546D12BF
:10383D00ABFD7F2012C8827F2012C882900274E0F7
:10384D00FEA3E0FF9001ACE0A3E0FD7B017A0279DD
:10385D006C75100512546D12ABFD7F0D12C8827F71
:10386D001C12C8827F2612C8827F1C12C8827F69F3
:10387D0012C8827F0312C8827BFF7A5279D47D06EB
:10388D0012AC057F1C12C8827F2E12C88290027264
:10389D00E07002A3E0700F7B017A02796C75100560
:0938AD007D02FFFE804A900272C8
:1038B600E0FEA3E0FFC3900275E09FFF900274E074
:1038C6009EFE3395E0FDFCE47B107A27F9F8121290
:1038D60067C006C007900272E0FEA3E0FBAA06EAF4
:1038E6003395E0F9F8D007D00612A4D37B017A020B
:1038F600796C7510057D0212546D12ABFD7F0D02B9
:10390600C8828F099001C2E07004A3E064016003DD
:10391600023A88E50925E0243CF582E43401F58382
:10392600E0FEA3E0FFC3EE64809480500F90027324
:103936007401F0C3E49FFFE49EA3801AE49002732F
:10394600F0E50925E0243CF582E43401F583E0FF47
:10395600A3E0900274CFF0A3EFF0C3EC64809480F0
:1039660050139002767401F0C3E49DFEE49CA3F02C
:10397600A3CEF0800BE4900276F0A3ECF0A3EDF07A
:10398600900276E0F9900273E0B50120900275E0AE
:0939960025E0FF900274E033FE0D
:10399F00D3900278E09FEE6480F8900277E0648025
:1039AF00984012E50925E0243CF582E43401F583C3
:1039BF00EC8DF0802AE96009ED24FFFFEC34FF80E5
:1039CF0006ED2401FFE43CFE7C007D02121151E55F
:1039DF000925E0243CF582E43401F583EE8FF012E3
:1039EF001187E50924FFFFE434FFFEEF25E0FFEE2A
:1039FF0033FE9000B4E075F003A424B5F582E434EF
:103A0F0000F58312135C8F828E831211C8FFAEF004
:103A1F00D39400EE648094804037E50925E0243C80
:103A2F00F582E43401F583E0FCA3E0C39FEE6480EC
:103A3F00F8EC648098401AEF24FFFFEE34FFFEE5A8
:103A4F000925E0243CF582E43401F583EEF0A3EF81
:103A5F00F0E50925E0243CF582E43401F583E0FE2E
:103A6F00C3EE648094805011E50925E0243CF58273
:103A7F00E43401F583E4F0A3F0229002D51213038E
:053A8F009002D9E51DC5
:103A9400F0E4A3F07B017A0279DBF52E7D0412C2F7
:103AA4001A7B017A0279DFE4F52E7D0412C21A7BB7
:103AB400017A0279E3E4F52E7D0412C21AE490023D
:103AC400E7F09002D51212EB8F218E208D1F8C1EF1
:103AD400E47B107A27F9F812A4D3AE02AF03AD0742
:103AE400AC06C004C0057527049002D9E0F528E4AB
:103AF4007F107E27FDFCAB21AA20A91FA81ED3128C
:103B040012C440047F0180027F008F297B017A0266
:103B140079DBD005D0041241619002DAE004F0AF01
:103B240021AE20AD1FAC1EE47B107A27F9F812A455
:103B3400D38F218E208D1F8C1EEC4D4E4F6065E47B
:103B44007B107A27F9F812A4D3AE02AF03AD07AC09
:103B540006C004C005752704E4F5287F107E27FD00
:103B6400FCAB21AA20A91FA81ED31212C440047FB3
:103B74000180027F008F297B017A0279DFD005D092
:103B8400041241619002DAE004F0AF21AE20AD1FCF
:103B9400AC1EE47B107A27F9F812A4D38F218E206F
:083BA4008D1F8C1EAF21AE2025
:103BAC00AD1FAC1EEC4D4E4F6043E47B107A27F9F1
:103BBC00F812A4D3AE02AF03AD07AC06752704E42C
:103BCC00F528F5297B017A0279E31241619002DA3A
:103BDC00E004F0AF21AE20AD1FAC1EE47B107A27C1
:103BEC00F9F812A4D38F218E208D1F8C1E229000E9
:103BFC0098E0FFB4020DE490012DF0A3F09001DAEF
:103C0C00023D5FEF64036003023D1B900169E0FF1E
:103C1C006401602BEF64026026EF64036021EF64A3
:103C2C0004601CEF64056017EF64066012EF640714
:103C3C00600DEF64086008EF64096003023CCC90EF
:103C4C00008DE06009900357E030E07480669000CE
:103C5C008FE0600A900357E0540360648056900034
:103C6C0092E0600A900357E054076054804690003D
:103C7C0093E0600A900357E0540F60448036900044
:103C8C0094E06022900125E06012900357E054C04C
:103C9C00FF64406005EF648070268018900357E045
:103CAC0054CF601C800E900096E06014900357E097
:0A3CBC0054CF600C12C6AA90012D2F
:103CC600E48FF0121187900169E0640B6003023DF6
:103CD60062900124E0FF70069000FBE0600790030D
:103CE60057E020E411EF701F9000FBE0701990037D
:103CF60057E05430601112C6AAC390012EE09FF01F
:103D060090012DE09400F0C390012DE06480948032
:103D1600504AE48044900098E06404703F9000FBB1
:103D2600E0FF900124E04FFF6007900357E020E496
:103D36000BEF7019900357E05430601112C6AAC3F6
:103D460090012EE09FF090012DE09400F0C39001C9
:103D56002DE0648094805004E4F0A3F022E4900205
:103D66006FF09002FEE0B4FF10900301E0B4FF098B
:103D760090026F7401F0023E6B9002EBE0146061FA
:103D8600147003023E2A24026003023E6B90030372
:103D9600E024FE6029046003023E6B12B7C2EFC343
:103DA60094005003023E6B12B7C2EFD394634003F4
:103DB600023E6B12B7BC9002ECEFF0023E6B12B7FC
:103DC600C2EFC394005003023E6B12B7C2EFD39406
:0E3DD600174003023E6B12B7BC9002F9EFF0EB
:103DE400023E6B900303E024FE601F04707912B757
:103DF400C2EFC39401407012B7C2EFD3940C506762
:103E040012B7BC9002EDEFF0805D12B7C2EFC3941D
:103E140000405412B7C2EFD3943B504B12B7BC903E
:103E240002FAEFF08041900303E024FE601F047067
:103E34003612B7C2EFC39401402D12B7C2EFD39428
:103E44001F502412B7BC9002EEEFF0801A12B7C2D2
:103E5400EFC39400401112B7C2EFD3943B50081241
:103E6400B7BC9002FBEFF09002FE74FFF0900301E8
:103E7400F090026FE07002803F9002EBE004F0E00B
:103E8400D394024029900303E0B4011112915CEF32
:103E94007002800F9003037402F0E480061291BC58
:103EA400EF70069002EBF080057F0502BBACE49056
:103EB4000374F090037304F01226772212AD1F905E
:103EC4000270EFF0E4A3F0A3F0A3F0A3F090026F6C
:103ED400F0900270E0FF90026FE0C39F5052900098
:103EE400B4E075F003A424B5F582E43400F583123C
:023EF400135C5D
:103EF60090026FE0FF75F002A4F58285F08312113F
:103F0600C8FD900271E5F08DF0121187EF25E024CF
:103F160089F582E43401F583E0FEA3E0FF900273A5
:103F2600EE8FF012118790026FE004F080A17BFF04
:103F36007A5279F87D0812AC057F2012C8827F205C
:103F460012C8827BFF7A5379527D0812AC05900223
:103F5600711254587B017A02796A7D0512AC057F8D
:103F66002012C8827F2012C8827BFF7A53795B7D3C
:103F76000812AC059002731254587B017A02796AD2
:103F86007D0512AC057F2012C8827F2012C8827B75
:103F9600FF7A5379647D0812AC05900271E07002D5
:103FA600A3E0700F7B017A02796A7510057D02FF26
:103FB600FE804A900271E0FEA3E0FFC3900274E027
:103FC6009FFF900273E09EFE3395E0FDFCE47B10BC
:103FD6007A27F9F8121267C006C007900271E0FE50
:103FE600A3E0FBAA06EA3395E0F9F8D007D006125B
:103FF600A4D37B017A02796A7510057D0212546D8D
:104006007B017A02796A7D0502AC059002EFE0FE3B
:10401600A3E0FF12BF2C90026FEEF0A3EFF012C4E4
:1040260089900271EEF0A3EFF0900089E0B50607E3
:10403600A3E0B50702803490026FE06401FEA3E0BE
:104046006429FF90013BE46EFEA3E46FFF7C277DAD
:10405600101210FC900273ECF0A3EDF0900271E0E8
:10406600FAA3E0FBB5050CEAB504089002FC74015E
:10407600F0FF2290026FE06402FEA3E0644AFF9024
:10408600013BE46EFEA3E46FFF7C277D101210FC5B
:10409600900273ECF0A3EDF0B5030CEAB50408E466
:1040A6009002FCF07F012290013BE4FEA3E4FF9026
:1040B600026FE06EFEA3E06FFF7C277D101210FCFE
:1040C600A3E06CFFA3E06DA3CFF0A3EFF090027323
:1040D600E0FEA3E0FF7C007D641210FCAB05AA04A1
:1040E600E4F518D3EB9400EA940040217C007D0AA5
:0740F600AF03AE021210FC43
:1040FD00ED2518F5187C007D0AAF03AE021210FCF9
:10410D00AA06AB0780D6E518701B900273E0FEA3DC
:10411D00E0FF7C007D641210FCEF64014E70067FA1
:10412D000F7E278029900273E0FAA3E0FB7C007DCF
:10413D0064FFAE021210FC7C00EFB51814ECB5064E
:10414D00107D64AF03AE021210FCAE04AF051290E9
:10415D003C7F00228B228A2389248C258D267B018E
:10416D007A027974E4F52EAD2712C21AD3E526949E
:10417D000FE525648094A7400675252775260FC386
:10418D00E5269419E5256480947C50067525FC750B
:10419D002619E490027BF0C3E52564809480500ECF
:1041AD00C3E49526F526E49525F5257401F0E490F4
:1041BD00027AF0AE25AF267C007D0A12115174AF44
:1041CD002DF58274CA3CF583E493FF90027AE0FDED
:1041DD00E527FB7A00C39DFDEA9400FC74732DF571
:1041ED008274023CF583EFF0AE25AF267C007D0A8C
:0F41FD001211518E258F2690027AE004F0E527EB
:10420C0014FFE0FED39F500BE526452570A6EE95D6
:10421C002840A1E5286017FFC3EB9FFFEA9400FE3E
:10422C0074732FF58274023EF583E04480F0E52927
:10423C006032E52714FF90027AE0FED39F50259060
:10424C00CAAFE493FFEEFDE527C39DFDE49400FCAB
:10425C0074732DF58274023CF583EFF090027AE0D2
:10426C0004F080CE90027BE060069002747440F003
:10427C00E490027AF090027AE0C395275022E0FF96
:10428C002474F582E43402F583E0AB22AA23A9243A
:10429C008F827583001210C890027AE004F080D5EA
:1042AC002212AD1F90026AEFF07F1B12C8827F634F
:1042BC0012C88290034FE0FF12C88290034FE014A3
:1042CC0070030243670460030243F71261541253F4
:1042DC006D12C178128F7990026AE0C39401400587
:1042EC007F01125E1690026AE0C3940240057F02C1
:1042FC00125E1690026AE0C3940340057F03125EBF
:05430C001690026AE0BA
:10431100C3940440057F04125E1690026AE0C394C0
:104321000540057F05125E1690026AE0C3940640BF
:10433100057F06125E1690026AE0C3940740057F6E
:1043410007125E1690026AE0C3940840057F0812C6
:104351005E1690026AE0C3940940057F09125E1659
:1043610012C17802377D12377D12C17890026AE05E
:10437100C3940940057F09125E1690026AE0C39456
:104381000840057F08125E1690026AE0C394074058
:10439100057F07125E1690026AE0C3940640057F0E
:1043A10006125E1690026AE0C3940540057F05126D
:1043B1005E1690026AE0C3940440057F04125E1603
:1043C10090026AE0C3940340057F03125E169002D7
:1043D1006AE0C3940240057F02125E1690026AE011
:1043E100C3940140057F01125E16128F7912C178C4
:1043F10012536D126154229002697401F09000B45D
:10440100E0C3940A4006E4F0900269F0E490026A85
:10441100F090026AE0FFC39409400302453D900019
:10442100B4E0FE75F003A424B5F582E43400F5830D
:0D44310012135C75F002EFA4F58285F08394
:10443E001211C8C3E5F0648094805029EE75F00324
:10444E00A424B5F582E43400F58312135C90026A5D
:10445E00E075F002A4F58285F083E4F5F012121FE8
:10446E00E4900269F09000B4E0FF75F003A424B567
:10447E00F582E43400F58312135C90026AE0FE7557
:10448E00F002A4F58285F0831211C845F070030284
:10449E004534EF75F003A424B5F582E43400F583BA
:1044AE0012135C75F002EEA4F58285F0831211C82A
:1044BE00FDACF0EF75F003A424D3F582E43400F5DF
:1044CE008312135C75F002EEA4F58285F08312114F
:1044DE00C8D39DEC6480F8E5F06480984048900065
:1044EE00B4E075F003A424B5F582E43400F583122C
:1044FE00135C90026AE075F002A4F58285F08312D7
:10450E0011C8FDACF0EF75F003A424D3F582E434AA
:10451E0000F58312135C75F002EEA4F58285F0832C
:10452E00EC8DF012121F90026AE004F00244129019
:10453E000269E0FF2290030EE07023900361747312
:0B454E00F0A37471F0E4A3F0A3F0A34D
:10455900F09000B4E02401F51DE433F51C12B88095
:1045690002468690030EE0FFC39401404CEFD394BA
:10457900195046EF24FFFBE434FFFA7C007D03AFBA
:1045890003FE1210FCED70319003617438F07C0069
:104599007D03AF03AE021210FCEF04FF12CA9F9015
:1045A9000362EFF09000B4E075F003A424B5F5823E
:1045B900E4340012A82302468690030EE0FFC39458
:1045C90002404FEFD3941A5049EFFB7A0024FEFFC3
:1045D900EA34FFFE7C007D031210FCED7034900379
:1045E900617471F0EB24FFFFEA34FFFE7C007D0368
:1045F9001210FCEF04FF12CA9F900362EFF09000C3
:10460900B4E075F003A424D3F582E4340012A8239E
:10461900806B90030EE0FFC394034064EFD3941BB7
:10462900505EEFFB7A0024FDFFEA34FFFE7C007D3B
:10463900031210FCED70499003617439F0EB24FF0B
:10464900FFEA34FFFE7C007D031210FCEF04FF1229
:05465900CA9F900362FE
:10465E00EFF090030EE024FFFFE434FFFE7C007DBC
:10466E00031210FCEF25E0243EF582E43401F583BD
:10467E00E0FEA3E0FF12A84A126D5222E53B700342
:10468E000247C49001EEE0FF9001EDE0B5070F90F8
:10469E00022CE0FF90022BE06F70030247C49001E2
:1046AE00EEE0FF9001EDE0FBB50703D38001C340C0
:1046BE00769001EDE0FF75F006A424EFF582E43468
:1046CE0001F583E0900269F0EF75F006A424F0F591
:1046DE0082E43401F583E090026AF0EB75F006A4F3
:1046EE0024F1F582E43401F5831212EB90026B1281
:1046FE001303EB2401FFE433FE7C007D0A1210FC51
:10470E009001EDEDF07401601E90026B1212EB8FB2
:10471E000D8E0C8D0B8C0A90026AE0FD900269E002
:10472E00FF127A160246AC90022CE0FF90022BE0AC
:10473E00FBB50703D38001C3500302469190022BB1
:10474E00E0FF75F006A4242DF582E43402F583E033
:10475E00900269F0EF75F006A4242EF582E434027F
:10476E00F583E090026AF0EB75F006A4242FF58233
:10477E00E43402F5831212EB90026B121303EB2456
:10478E0001FFE433FE7C007D0A1210FC90022BED3B
:10479E00F07401700302469190026B1212EB8F0DB2
:1047AE008E0C8D0B8C0A90026AE0FD900269E0FF80
:1047BE00127A1602473522E490036DF0A3F09001B1
:1047CE00CCE07002A3E0600302486C9001A1E0B45B
:1047DE00013F9002C5E014601814601D146022148D
:1047EE0060271460042405704890036174F1F08012
:1047FE004090036174D8F080389003617488F08023
:10480E00309003617480F0802890036174A1F08071
:10481E002090036174F1F09002C5E014601C1460E6
:10482E002214602814602E146007240560030248C9
:10483E00F390036274B8F00248F39003627490F040
:10484E000248F39003627480F00248F3900362749E
:10485E0081F00248F390036274E0F00248F3900195
:10486E00A1E0B4013E9002C5E014601814601D145E
:0F487E00602214602614600424057044900361C6
:10488D007471F0803C9003617458F0803490036132
:10489D007408F0802CE4900361F08025900361741E
:1048AD0021F0801D9003617471F09002C5E01460D9
:1048BD001814601D14602114602614600424057002
:1048CD00259003627438F0801D9003627410F0809F
:1048DD0015E4900362F0800E9003627401F080067F
:1048ED009003627460F0029A0E900168E06003021A
:1048FD004A109000F7E0FFC39405500612AD91EFFA
:10490D00701F9000F7E0FF12AD91BF01119000F7FD
:10491D00E0FF12C4FD9000F774FFF012AB877F002B
:10492D002212621FEF60289001AEE07002A3E060DA
:10493D0016900041E0FFB40105E49000F1F0EFB4F2
:10494D000205E49000A8F07F0112B7E47F0122E494
:10495D0090026AF09001AEE07002A3E0703D90000D
:10496D0041E0FFB401149000A4E020E10D9000ADF2
:10497D00E030E10690026A7401F0900124E0704D80
:10498D009000FBE07047EF640270429000A4E020BD
:10499D00E03B9000ADE030E034802C900041E0FF32
:1049AD00B4010D90002DE020E10690026A7401F033
:1049BD00900124E070179000FBE07011EFB4020D30
:1049CD0090002DE020E00690026A7401F09001EC59
:1049DD00E0B4010690026A7401F0E49001ECF090ED
:1049ED00026AE060279001A2E0FEA3E0FFD39001F0
:1049FD002EE09FEE6480F890012DE06480985003C6
:104A0D007F012212BC1512CCB47F00227F002290B0
:104A1D0001B0E07002A3E06008900098E0640260CD
:104A2D0019900095E0FFC394054003024B4012AD71
:104A3D0091EF7003024B40024B329001DAE0FEA37E
:104A4D00E0FFC390012EE09FFF90012DE09E9002AC
:104A5D0069F0A3EFF012C6AAEF75F005A4FFD3908D
:104A6D00026AE09FE5F06480F8900269E064809846
:104A7D004003024B2212C6AA7E007CFF7DFB121062
:104A8D00EAC390026AE09FEE6480F8900269E064E8
:104A9D0080985003024B22900095E0FF940550063C
:104AAD0012AD91EF701A7F0A7E0012880690009564
:024ABD00EFF018
:104ABF00BFFF047F0180027F00EF607580E69000EA
:104ACF0095E0FF12AD91EF64017066900095E0FFE5
:104ADF0012C4FD90009574FFF0D390026AE0940029
:104AEF00900269E064809480400C12C6AA9001DAAB
:104AFF00E48FF0121187C3900269E06480948050B4
:104B0F003012C6AAC39001DBE09FF09001DAE09467
:104B1F0000F022900095E0FFC39405501412AD9160
:104B2F00EF600E900095E0FF12C4FD90009574FFAA
:104B3F00F022900302E0FF1274A5900271EFF09043
:104B4F000302E0FF75F00AA42442F582E4341FF556
:104B5F008312136E12103D900361F0EF75F00AA4EB
:104B6F002442F582E4341FF58312136E9000011274
:104B7F001056900362F0E4A3F0A3F0A3F0A3F0901B
:104B8F000302E075F00AA42441F582E4341FF58393
:104B9F00E4936401706790030D04F0900302E0FE4C
:104BAF0075F00AA42445F582E4341FF583E493FDE0
:0D4BBF00C374069DFFC374069DFB90027138
:104BCC00E025E024A2F582E43401F583E0FCA3E0C7
:104BDC00FDEE75F00AA42446F582E4341FF583E457
:104BEC0093FEB4FF0A9001ACE0A3E0FAFE80008EC5
:104BFC001E8C1C8D1DE4F51F7D0512B88B026D52A9
:104C0C0090030D7402F0900302E0FF75F00AA424E7
:104C1C0047F582E4341FF58312136EEF75F00AA486
:104C2C00244AF582E4341FF583E493FD900271E08D
:104C3C0025E024A2F582E43401F583E0A3E0F51D20
:104C4C00751E02751F0412BCC912A4492212AD1F95
:104C5C0090026FEFF090030EE004F0E0FFC39403BA
:104C6C00401BEFD3941B5015EF24FDFFE434FFFEE3
:104C7C007C007D031210FCED7003024D5290030E6C
:104C8C00E0FFC394024021EFD3941A501BEF24FE93
:104C9C00FFE434FFFE7C007D031210FCED700990E4
:104CAC000104E07003024D5290026FE0FFD39401B7
:104CBC00500C90030EE0C394044003024D4DEFD30F
:024CCC00940250
:104CCE00500B90030EE0C394074002807290026F67
:104CDE00E0D39403500B90030EE0C3940A4002807D
:104CEE005E90026FE0FFD39404500B90030EE0C36E
:104CFE00940D40028049EFD39405500B90030EE0C3
:104D0E00C394104002803890026FE0D39406500B8B
:104D1E0090030EE0C394134002802490026FE0FFD4
:104D2E00D39407500B90030EE0C394164002800FED
:104D3E00EFD39408501A90030EE0C39419401174E7
:104D4E001CF0800C90030EE0C3941C5003024C61C7
:104D5E0090030EE0C3941C50061245437F01227F40
:104D6E00002212AD1F90026AEFF07BFF7A53796436
:104D7E007D0812AC05E4900270F090026AE0FF909C
:104D8E000270E0C39F4003024E827F2012C8827FD2
:104D9E002012C8829000B4E075F003A424B5F58209
:104DAE00E43400F58312135C900270E075F002A4F7
:104DBE00F58285F0831211C845F070107B017A02DE
:104DCE00796B7510057D02FFFE024E6B9000B4E00C
:094DDE0075F003A424B5F582E48C
:104DE7003400F58312135C900270E0FF75F002A4A3
:104DF700F58285F0831211C8FDEF25E02489F5823D
:104E0700E43401F583E0FEA3E0C39DFFEE95F0FED9
:104E17003395E0FDFCE47B107A27F9F8121267C09E
:104E270006C0079000B4E075F003A424B5F582E44A
:104E37003400F58312135C900270E075F002A4F55C
:104E47008285F0831211C8AEF0FBAA06EA3395E01B
:104E5700F9F8D007D00612A4D37B017A02796B75D3
:104E670010057D0212546D7B017A02796B7D051264
:104E7700AC05900270E004F0024D882290030EE02A
:104E8700701212C489EF14FF12B22EEF6003024FA3
:104E9700797F002290030EE0FFC39401403FEFD3D8
:104EA70094195039EF24FFFBE434FFFA7C007D03AB
:104EB700AF03FE1210FCED7024FC7D03AF03AE02BE
:104EC7001210FCEF04FFC00712C489AC06AD07D06F
:104ED70007127AAAEF6003024F797F002290030E30
:0B4EE700E0FFC394024043EFD3941A95
:104EF200503DEFFB7A0024FEFFEA34FFFE7C007D8A
:104F0200031210FCED7028EB24FFFFEA34FFFE7C55
:104F1200007D031210FCEF04FFC00712C489AC0627
:104F2200AD07D007127D70EF6002804B7F002290A8
:104F3200030EE0FFC394034047EFD3941B5041EFAD
:104F4200FB7A0024FDFFEA34FFFE7C007D03121091
:104F5200FCED702CEB24FFFFEA34FFFE7C007D03A6
:104F62001210FCEF04FFC00712C489AC06AD07D0D3
:104F720007127015EF600612CC347F01227F0022E7
:104F82007F0022E490026AF0A3F09001AEE070028A
:104F9200A3E070519001ECE0FFB4020590026A8038
:104FA20013900124E070109000FBE0700AEFB4034C
:104FB2000690026B7401F09000A4E0FF20E10D90D6
:104FC200002DE030E10690026A7401F0900124E0C5
:104FD20070379000FBE07031EF20E02D90002DE063
:104FE20030E026801E90002DE0FF30E10690026A3C
:0F4FF2007401F0900124E070109000FBE0700A51
:10500100EF30E00690026B7401F0E49001ECF09057
:10501100026AE0600A9000F1E060047F0180027F93
:105021000090026AEFF0A3E0600A9000A8E060043B
:105031007F0180027F0090026BEFF090026AE060D6
:1050410017A3E06013900097E0B40107E490026AAF
:10505100F08005E490026BF090026AE060047F0149
:10506100800C90026BE060047F0280027F00900060
:1050710041EFF0600C900168E0600312B76C7F01B2
:10508100227F00228B198A1A891B8D1CE490027AD7
:10509100F0900277F0E51C14A3F012A7E3EFF4708F
:1050A10035AB19AA1AA91B900277E0FF3395E08F5F
:1050B10082F583121056B4400690027A7401F09082
:1050C1000277E004F0E0FD3395E0FCC3ED951C743C
:1050D10080F86C9840C4900277E0FD3395E0FCC302
:1050E100ED951C7480F86C984004E4FEFF2212A731
:1050F100E3BFFF0E900278E014F0E0C36480948077
:0351010050ECE48B
:1051040090027BF0A3F0900277E0900279F0900295
:1051140078E0FF3395E0FEA3E0D39FEE6480F8745B
:105124008098503A90027BE0FEA3E0FF7C007D0A69
:105134001210EA90027BEEF0A3EFF0AB19AA1AA9C1
:105144001B900279E0F58275830012A7F590027B2B
:10515400E48FF0121187900279E004F080B090029D
:105164007AE06013A3E0FEA3E0FFC3E49FFFE49EA4
:1051740090027BF0A3EFF090027BE0FEA3E0FF221D
:105184008B108A11891212C52BEF60037F0022ABAA
:1051940010AA11A912900003121056FFF46023E91B
:1051A4002409F9E43AFA75F002EFA4F58285F08354
:1051B4001211C8FFC3ED9FE5F06480F8EC64809899
:1051C4005012AB10AA11A9129000021210569000AE
:1051D400031210C8AB10AA11A912900004121056A1
:1051E400FFF46023E92409F9E43AFA75F002EFA424
:0951F400F58285F0831211C8FF59
:1051FD00D3ED9FE5F06480F8EC6480984012AB101D
:10520D00AA11A9129000021210569000041210C893
:10521D00AB10E5122409F9E43511FAC002C001AA58
:10522D0011A91290000212105675F002A4F5828594
:10523D00F083D001D002EC8DF012121FAB10AA1129
:10524D00A9129000021210562401FFE433FE7C00D7
:10525D007D0A1210FC900002ED1210C8900005742A
:10526D000112108390000674011210C87F012220D4
:10527D00BBB6D3ADCAB9D3C32000584B333131308F
:10528D00D2C7B1ED007777772E6C7962652E636E9C
:10529D0000BBB6D3ADCAB9D3C3584B2D3331313062
:1052AD00D2C7B1ED00C5FAB4CE00C5E4B7BD00CE8E
:1052BD00EFC1CF00C5E4B7BDD6B500CDEAB3C9D6B1
:1052CD00B500D7DCBCC600CEF3B2EEC2CA00C5FA3B
:1052DD002020B4CEA3BA00C5E42020B7BDA3BA00E8
:1052ED00C9FAB2FACAB1BCE4A3BA00BACF2020BC45
:1052FD00C6A3BA00CEEF2020C1CFA3BA002020C193
:10530D00CF312020002020C1CF322020002020C10D
:10531D00CF332020002020C1CF342020002020C1F9
:10532D00CF352020002020C1CF362020002020C1E5
:10533D00CF372020002020C1CF382020002020C1D1
:10534D00CF39202000C4BFB1EAD6B5A3BA00CDEA4B
:10535D00B3C9D6B5A3BA00CEF3B2EEC2CAA3BA0092
:10536D007B017A01799B128877EF704B7F2D12C8E4
:10537D00827F2D12C8827F2D12C8827F2D12C88286
:10538D007F2D12C8827F2D12C8827F2D12C8827F79
:10539D002D12C8827F2012C8827F2012C8827F2DD5
:1053AD0012C8827F2D12C8827F3A12C8827F2D12B9
:1053BD00C8827F2D02545090019BE075F00A842421
:1053CD0030FF12C88212C8757F2D12C88290019CC1
:1053DD00E075F00A842430FF12C88290019C12C837
:1053ED00787F2D12C88290019DE075F00A842430DB
:1053FD00FF12C88290019D12C8787F2012C8827F4B
:10540D002012C88290019EE0FFD3940A400AEF75E6
:10541D00F00A842430FF80027F2012C88290019E02
:05542D0012C8787F3A6F
:1054320012C88290019FE075F00A842430FF12C8DE
:105442008290019FE075F00A84E5F02430FF12C8D3
:10545200827F0D02C8827A02796AE0FEA3E0FF90A1
:1054620001ACE0A3E0FD7B017510058E0A8F0B8D68
:105472000C8B0D8A0E890FE4900276F0900276E092
:10548200FFC395105018AB0DAA0EA90F8F8275831A
:105492000074201210C8900276E004F080DEE490DE
:1054A2000276F0900276E0FFB50C25E50CD394006D
:1054B200401EE5109FFFE49400CF24FFCF34FFABE2
:1054C2000DAA0EA90F8F82F583742E1210C8803F89
:1054D200AE0AAF0B7C007D0A121151ED2430FF9011
:1054E2000276E0FDE510C39DFDE49400CD24FFCDDE
:1054F20034FFAB0DAA0EA90F8D82F583EF1210C8EF
:10550200AE0AAF0B7C007D0A1211518E0A8F0B90EE
:105512000276E004F0E0FFC395105024E50C24016C
:10552200FDE433FCD3EF9DEC6480F874809850075F
:09553200E50C60030254A5E50B31
:10553B00450A60030254A5228F099001C2E0700452
:10554B00A3E06401600302562DEB2DFFEA3CFE7CC9
:10555B00007D02121151AA06AB07E50925E0243C98
:10556B00F582E43401F583E0FEA3E0FF7C007D02CD
:10557B00121151EF2BFFEE3AFEE50925E0243CF525
:10558B0082E43401F583EEF0A3EFF0E50924FFFF8D
:10559B00E434FFFEEF25E0FFEE33FE9000B4E07540
:1055AB00F003A424B5F582E43400F58312135C8F69
:1055BB00828E831211C8FFAEF0D39400EE648094F8
:1055CB00804037E50925E0243CF582E43401F5837E
:1055DB00E0FCA3E0C39FEE6480F8EC648098401A73
:1055EB00EF24FFFFEE34FFFEE50925E0243CF582B6
:1055FB00E43401F583EEF0A3EFF0E50925E0243C5C
:10560B00F582E43401F583E0FEC3EE6480948050B0
:0F561B0011E50925E0243CF582E43401F583E430
:10562A00F0A3F0228E138F148B158A168917E4B50E
:10563A00141BE513B4021612103D6003025715122B
:10564A00BBCFEF60030257157F0502BBACAF14AEA8
:10565A001312A01EEF70030257159002F6E0FF64C2
:10566A00036008EF640460030256FD900098E0FFAF
:10567A0064037003025715EF64047003025715E5BB
:10568A00147004E51364046008E514640245137099
:10569A007AE4900374F0900373F0AB15AA16A91775
:1056AA0012103D7066E4B51423E513B4041E90038A
:1056BA0011E0FF9002FDE0FEC374059EFE7401A88E
:1056CA0006088002C333D8FCF45F801B900311E004
:1056DA00FF9002FDE0FEC374059EFE7401A8060851
:1056EA008002C333D8FC4F900311F0900311E0FFFE
:1056FA000275EB9002F6E0B40511E5146402451355
:10570A00700912C7F212C99412CCC022129C9012CC
:10571A00854EEF700612C1C912872012B1C9EF7007
:10572A0009900029E04420F080031228A212A66002
:10573A00EF700612C1FF12A378129714EF70079048
:03574A000029E053
:10574D000000F012A6A1EF700612B80B12A95F129D
:10575D00C3E1EF7007900029E04408F012AC37EF79
:10576D007006127BCD12A8A21269B512AC71EF7042
:10577D000612B59712A8E1127EFC12A61FEF700655
:10578D0012CECA12A3329000B4E0C31304FF1274F8
:10579D0004EF700612ADC9126F6612A723128AA00C
:1057AD001243F812ACABEF700612ACE512A9201241
:1057BD0063AC12A0F7900139E0600E129B53EF70AD
:1057CD000E129B53EF7008800012CBBC129E131269
:1057DD00BB65EF6006129664EF701012C83E900024
:1057ED008EE070049003A4F012BD8B753B01228BEB
:1057FD001E8A1F892012CB83EF60037F0022AB1E10
:10580D00AA1FA920900001121056FF90000312103C
:10581D0056B5070890000374FF1210C8AB1EAA1FDF
:10582D00A920900001121056FF900004121056B5D9
:10583D00070890000474FF1210C8E5234522603755
:10584D00AB1EE5202409F9E4351FFAC002C001AAF8
:10585D001FA92090000112105675F002A4F5828543
:10586D00F083D001D0021211C8FFAB21AA22A923C7
:10587D00E5F08FF0121200AB1EAA1FA920900001B7
:07588D001210562401FFE494
:1058940033FE7C007D0A1210FC900001ED1210C84A
:1058A40090000574FF121083900003121056B4FF89
:1058B40009AB1EAA1FA920125B86AB1EAA1FA92032
:1058C400900004121056B4FF03125C62AB1EAA1FB0
:1058D400A92090000674011210C87F0122C0E0C004
:1058E400F0C083C082C0D075D000C000C001C00227
:1058F400C003C004C005C006C007758ACE758CF805
:1059040012CA8F900356E0FF24FA5004605A805E56
:1059140090035EE0700575A0FF8043900373E06020
:105924002C746D2FF582E43403F583E0601F90033B
:1059340056E0FF2467F582E43403F583E0F4FE7453
:10594400612FF582E43403F583E05E800E90035604
:10595400E02461F582E43403F583E0F4F5A09003D8
:1059640056E0FF12927B8006126CA012AFF01292E6
:105974001C12CACF900374E004F0E0C394FA4013FD
:10598400E4F0900373E070047F0180027F009003D1
:1059940073EFF0900356E02401FFE433FE7C007DB6
:1059A400071210FCEDF0D007D006D005D004D003C8
:0459B400D002D0014C
:1059B800D000D0D0D082D083D0F0D0E032E49002B2
:1059C800BEF0A3F0A304F09002C0E0FDD39404401D
:1059D80003025A9E9002BFE0C4F8540FC868F090C2
:1059E80002BEE0C454F048F0EDB40103C38001D313
:1059F80092869002C0E0FFB40203C38001D392876D
:105A0800EFB40303C38001D392C69002C0E0FFB491
:105A18000403C38001D392C1EFB40503C38001D34B
:105A280092C59002C0E0B40603C38001D392C4E4D7
:105A38009002C1F09002C1E004F0E0B464F6E49092
